:100000000C94201D0C94511D0C94511D0C94511DE9
:100010000C94511D0C94511D0C94511D0C94511DA8
:100020000C94511D0C94511D0C94511D0C94511D98
:100030000C94511D0C9401CE0C94511D0C94511D27
:100040000C94511D0C941E280C94511D0C94511DA0
:100050000C94511D0C94511D0C9429260C94402590
:100060000C94511D0C94038C0C94B08C0C94511D69
:100070000C94511D0C94511D0C94511D0C94511D48
:100080000C94511D0C94511D0C94511D0C94511D38
:100090000C94511D0C94511D0C94511D0C94511D28
:1000A0000C94511D0C94511D0C94511D0C94511D18
:1000B0000C94511D0C94511D0C94511D0C94511D08
:1000C0000C94511D0C94511D0C94511D0C94511DF8
:1000D0000C94511D0C94511D0C94F9A90C94BAA9BF
:1000E0000C94511D084AD73B3BCE016E84BCBFFD2A
:1000F000C12F3D6C74319ABD56833DDA3D00C77FF8
:1001000011BED9E4BB4C3E916BAAAABE0000008090
:100110003F05A84CCDB2D44EB93836A9020C50B91F
:10012000918688083CA6AAAA2ABE000000803F004B
:100130004E414E494E495459494E46CDCCCC3D0ACC
:10014000D7233C17B7D13877CC2B329595E6241FAF
:10015000B14F0A000020410000C84200401C462068
:10016000BCBE4CCA1B0E5AAEC59D741000AA03F04B
:10017000013A019002220130031001D00302017004
:1001800004F7001005ED00B005E5005006DD00F0B5
:1001900006D7009007D1003008CC00D008C7007007
:1001A00009C300100ABE00B00ABB00500BB700F034
:1001B0000BB300900CB000D00DAA00100FA500509A
:1001C00010A00090119B00D0129600B014900090E7
:1001D000168B0070188500501A8000301C7B00B010
:1001E0001E750030216F00B02369003026640010B6
:1001F000285F00902A5A00702C5500F02E4F007096
:10020000314800B0324500F03341007036390010FB
:100210003737005038330090392D00D03A2700B0DE
:100220003C1C00503D1700F03D1100903E0900D0ED
:100230003FE5FF627573793A2070617573656420DC
:10024000666F7220696E7075740A00627573793A10
:100250002070617573656420666F722075736572B6
:100260000A00627573793A2070726F6365737369FF
:100270006E670A005446542053657269616C2044CD
:10028000656275673A2046696C616D656E742072AF
:10029000756E6F75742E2E2E204A31350A004A3144
:1002A00035002044454255473A204149334D2050BE
:1002B000617573652053746174653A20004445424A
:1002C00055473A20333030306D732064656C617966
:1002D00020646F6E650A0044454255473A205365D5
:1002E000742066696C616D656E74207472696767ED
:1002F00065722074696D650A005446542053657216
:1003000069616C2044656275673A2046696C616D6D
:10031000656E742072756E6F7574207265636F768A
:10032000657265640A004B494C4C206361757365C6
:1003300064206279204B494C4C20627574746F6E56
:100340002F70696E0A004B494C4C206361757365D0
:100350006420627920746F6F206D75636820696E08
:100360006163746976652074696D65202D206375FD
:100370007272656E7420636F6D6D616E643A2000F9
:10038000000000C100000000000000000000484222
:100390000000484200008040000000005761726E7B
:1003A000696E673A20486F6D696E672042756D709F
:1003B0002044697669736F72203C20310A00020282
:1003C000040000A0400000A0400000004000008B9E
:1003D0004300004D4300004D43FFFFFF7C3C3E5E69
:1003E0002B3D3F2F5B5D3B2C2A225C004572726FD8
:1003F000722077726974696E6720746F204545506A
:10040000524F4D210A00454550524F4D20646174B2
:100410006173697A65206572726F722E0A00290A0B
:10042000002062797465733B20637263200053651A
:100430007474696E67732053746F7265642028004A
:10044000290A002062797465733B2063726320007F
:100450002073746F7265642073657474696E67735A
:1004600020726574726965766564202800202863AF
:10047000616C63756C6174656429210A0020213DFB
:100480002000454550524F4D20435243206D697323
:100490006D61746368202D202873746F7265642900
:1004A00020002053697A653A2000496E6465783AE5
:1004B0002000204D61726C696E3D563535290A0069
:1004C00028454550524F4D3D00454550524F4D2017
:1004D00076657273696F6E206D69736D61746368A0
:1004E000200048617264636F6465642044656661DE
:1004F000756C742053657474696E6773204C6F61FA
:100500006465640A00D0070000D0070000640000A2
:10051000001027000000009643000096430000A052
:10052000410000A0420000C8420000A04200004874
:10053000440080DE4320286D6D290020204D363098
:100540003320002055004C0046696C616D656E7467
:10055000206C6F61642F756E6C6F6164206C656ECA
:10056000677468733A0A0020204D393030204B0000
:100570004C696E65617220416476616E63653A0A0A
:100580000020440020490020204D3330342050000A
:1005900020440020490020204D33303120500050AD
:1005A00049442073657474696E67733A0A00205A6F
:1005B0000020590020204732392053332058002092
:1005C0005A0020204D3432302053004D657368208E
:1005D000426564204C6576656C696E673A0A002056
:1005E0005A0020590020204D323036205800486FE4
:1005F0006D65206F66667365743A0A0020450020B9
:100600005A00205900205800205400205300202078
:100610004D32303520510020453C6D61785F655F7B
:100620006A65726B3E0020583C6D61785F785F6A46
:1006300065726B3E20593C6D61785F795F6A6572C7
:100640006B3E205A3C6D61785F7A5F6A65726B3EE3
:1006500000416476616E6365643A20513C6D696E59
:100660005F7365676D656E745F74696D655F7573E3
:100670003E20533C6D696E5F6665656472617465AA
:100680003E20543C6D696E5F74726176656C5F6686
:10069000656564726174653E00205400205200203C
:1006A000204D323034205000416363656C657261C7
:1006B00074696F6E2028756E6974732F7332293ACE
:1006C00020503C7072696E745F616363656C3E209C
:1006D000523C726574726163745F616363656C3E02
:1006E00020543C74726176656C5F616363656C3E37
:1006F0000A00204500205A0020590020204D3230A9
:10070000312058004D6178696D756D2041636365D6
:100710006C65726174696F6E2028756E6974732FD1
:100720007332293A0A00204500205A00205900203F
:10073000204D3230332058004D6178696D756D2041
:100740006665656472617465732028756E6974737B
:100750002F73293A0A00204500205A002059002012
:10076000204D3932205800537465707320706572C3
:1007700020756E69743A0A0020204D3230302044D2
:10078000300A0020204D323030204400204469736C
:1007900061626C65640A0046696C616D656E742007
:1007A00073657474696E67733A0020204732312094
:1007B0002020203B00545249474745524544006F92
:1007C00070656E003A20007A5F6D696E00795F6D2A
:1007D000696E00785F6D696E005265706F72746942
:1007E0006E6720656E6473746F70207374617475C6
:1007F000730A000A4D6561737572656420706F69D4
:100800006E74733A0A005A206F66667365743A20F4
:10081000004E756D20582C593A20352C350A0000B1
:100820000000010000000100008000555555000047
:1008300000400033333300AAAA2A00499224000062
:10084000002000C7711C0099991900D14517005567
:100850005515003BB113002449120011111100007D
:100860000010000F0F0F00E3380E0043790D00CC8D
:10087000CC0C00C3300C00E8A20B0064210B00AAD2
:10088000AA0A00703D0A009DD80900427B09009227
:10089000240900DCD3080088880800104208000002
:1008A000000800F0C1070087870700755007007136
:1008B0001C07003EEB0600A1BC060069900600661E
:1008C000660600703E06006118060017F405007405
:1008D000D105005BB00500B29005006272050055BD
:1008E00055050078390500B81E0500050505004EC0
:1008F000EC040087D40400A1BD040090A7040049C3
:10090000920400C17D0400EE690400C7560400444F
:100910004404005C3204000821040041100400007B
:100920000004003FF00300F8E0030026D20300C3F8
:10093000C30300CCB503003AA803000A9B030038A8
:100940008E0300C08103009F750300D0690300502F
:100950005E03001D53030034480300913D03003340
:1009600033030016290300381F03009715030030D6
:100970000C0300030303000BFA020049F10200BA62
:10098000E802005CE002002DD802002DD0020059E0
:10099000C80200B0C0020031B90200DAB10200AAF8
:1009A000AA0200A0A30200BC9C0200FA9502005C0F
:1009B0008F0200DF88020082820200457C0200274D
:1009C00076020027700200436A02007C640200D0B5
:1009D0005E02003F590200C853020020746F6F206E
:1009E0006C6F6E6720657874727573696F6E2070B6
:1009F000726576656E7465640A00FFFDFCFAF8F6B0
:100A0000F4F2F0EEECEAE9E7E5E3E1E0DEDCDAD986
:100A1000D7D5D4D2D0CFCDCBCAC8C7C5C3C2C0BF2B
:100A2000BDBCBAB9B7B6B4B3B2B0AFADACAAA9A8A1
:100A3000A6A5A4A2A1A09E9D9C9A999897959493EF
:100A400092908F8E8D8B8A8988878684838281801D
:100A50007F7E7D7B7A797877767574737271706F2B
:100A60006E6D6C6B6A696867666564636261605F1E
:100A70005E5D5C5B5A595858575655545352515005
:100A8000504F4E4D4C4B4A4A4948474646454443D1
:100A9000424241403F3E3E3D3C3B3B3A393838378D
:100AA000363535343332323130302F2E2E2D2C2B3B
:100AB0002B2A2929282727262525242323222121DB
:100AC00020201F1E1E1D1C1C1B1B1A19191818176D
:100AD0001616151514131312121111100F0F0E0EF6
:100AE0000D0D0C0C0B0A0A09090808070706060574
:100AF0000504040303020201000024F4D43050C3AF
:100B00008E20C2A24017828B7011127A910D816CD7
:100B1000D90AA861E108C7586607615143061E4B10
:100B20005D05C145A7041A411104093D98037139B7
:100B300031034036DB0265339102D4305402802EFB
:100B40001D02632CEE01752AC501B028A0011027F3
:100B500081018F2564012B244B01E0223401AC215B
:100B60001F018D200D01801FFC00841EED00971DCC
:100B7000DF00B81CD200E61BC600201BBC00641AB4
:100B8000B200B219A8000A19A0006A189900D1177A
:100B9000910040178B00B516840031167E00B31506
:100BA00079003A157300C7146F0058146A00EE13E9
:100BB00066008813630025135E00C7125B006C1289
:100BC000570015125400C111510070114F0021112E
:100BD0004B00D61049008D1047004610440002100B
:100BE0004200C00F4000800F3E00420F3C00060F45
:100BF0003B00CB0E3800930E37005C0E3500270EFD
:100C00003400F30D3200C10D3100900D3000600D45
:100C10002E00320D2D00050D2C00D90C2B00AE0C32
:100C20002900850C29005C0C2700350C27000E0CD0
:100C30002600E80B2400C40B2400A00B23007D0B2E
:100C400023005A0B2100390B2100180B2000F80A51
:100C50001F00D90A1E00BB0A1E009D0A1D00800A43
:100C60001D00630A1C00470A1B002C0A1B00110A06
:100C70001A00F7091A00DD091900C4091900AB09A7
:100C80001900920917007B091800630917004C0925
:100C9000160036091600200916000A091500F50885
:100CA0001500E0081400CC081400B8081400A408CB
:100CB0001400900813007D0812006B0813005808F8
:100CC000120046081200340811002308110012080F
:100CD000110001081100F0071000E0071000D00714
:100CE0001000C0071000B0070F00A1071000910707
:100CF0000E0083070F0074070F0065070E005707EB
:100D00000E0049070E003B070D002E070E002007BE
:100D10000D0013070D0006070D00F9060C00ED0687
:100D20000D00E0060C00D4060C00C8060C00BC0642
:100D30000C00B0060C00A4060B0099060C008D06F2
:100D40000B0082060B0077060B006C060B00610699
:100D50000A0057060B004C060A0042060A00380635
:100D60000A002E060A0024060A001A060A001006C7
:100D7000090007060A00FD050900F4050900EB0556
:100D80000900E2050900D9050900D0050900C705D9
:100D90000900BE050900B5050800AD050800A50558
:100DA00009009C050800940508008C0508008405CE
:100DB00008007C050800740508006C05070065053F
:100DC00008005D050700560508004E0507004705A9
:100DD00007004005080038050700310507002A050F
:100DE0000700230507001C050600160507000F0570
:100DF00007000805060002050700FB040600F504CD
:100E00000700EE040600E8040600E2040700DB0425
:100E10000600D5040600CF040600C9040600C3047A
:100E20000600BD040600B7040600B1040500AC04CA
:100E30000600A6040600A00405009B040600950415
:100E40000500900406008A0405008504050080045E
:100E500006007A04050075040500700405006B04A3
:100E6000050066040500610405005C0405005704E4
:100E70000500520405004D04050048040500430424
:100E800005003E0404003A04050035040500300462
:100E900004002C04050027040400230405001E049C
:100EA00004001A04040016040500110404000D04D3
:100EB0000400090405000404040000040400FC0309
:100EC0000400F8030400F4030400F0030400EC033E
:100ED0000400E8030400E4030400E0030400DC036E
:100EE0000400D8030400D4030400D0030400CC039E
:100EF0000400C8030300C503030024F404D9201B25
:100F0000C40C5C0E9804C4095F0265077101F40506
:100F1000F900FB04B30048048700C10369005803CB
:100F2000550003034500BE023A008402310053021B
:100F30002A002902250004022000E4011C00C80147
:100F40001900AF011700980114008401130071010A
:100F500010006101100051010E0043010D00360127
:100F60000B002B010B0020010B00150109000C01E7
:100F7000090003010800FB000800F3000800EB0073
:100F80000700E4000600DE000600D8000600D200DC
:100F90000600CC000500C7000500C2000500BD002A
:100FA0000400B9000400B5000400B1000400AD0065
:100FB0000400A9000400A5000300A20003009F0094
:100FC00004009B00030098000300950002009300BA
:100FD0000300900003008D0002008B0003008800D6
:100FE00002008600020084000300810002007F00EE
:100FF00002007D0002007B00020079000200770001
:10100000010076000200740002007200010071000D
:1010100002006F0002006D0001006C0002006A0017
:101020000100690002006700010066000100650020
:101030000100640002006200010061000100600024
:1010400001005F0002005D0001005C0001005B0028
:1010500001005A000100590001005800010057002A
:10106000010056000100550001005400010053002A
:101070000000530001005200010051000100500027
:1010800001004F0001004E0000004E0001004D0025
:1010900001004C0001004B0000004B0001004A0021
:1010A000010049000100480000004800010047001D
:1010B0000100460000004600010045000000450018
:1010C0000100440001004300000043000100420011
:1010D000000042000100410000004100010040000A
:1010E00001003F0000003F0001003E0000003E0004
:1010F00001003D0000003D0001003C0000003C00FC
:1011000000003C0001003B0000003B0001003A00F1
:1011100000003A00010039000000390001003800E9
:1011200000003800000038000100370000003700E0
:1011300001003600000036000000360001003500D6
:1011400000003500000035000100340000003400CC
:1011500000003400010033000000330000003300C1
:1011600001003200000032000000320001003100B6
:1011700000003100000031000100300000003000AC
:101180000000300001002F0000002F0000002F00A1
:1011900000002F0001002E0000002E0000002E0095
:1011A00001002D0000002D0000002D0000002D008A
:1011B00001002C0000002C0000002C0000002C007E
:1011C00001002B0000002B0000002B0000002B0072
:1011D00001002A0000002A0000002A0000002A0066
:1011E000010029000000290000002900000029005A
:1011F000000029000100280000002800000028004D
:10120000000028000000280001002700000027003F
:101210000000270000002700000027000100260032
:101220000000260000002600000026000000260026
:101230000100250000002500000025000000250019
:10124000000025000000250001002400000024000B
:1012500000002400000024000000240001002300FE
:1012600000002300000023000000230000002300F2
:1012700000002300000023000100220000002200E3
:1012800000002200000022000000220000002200D6
:1012900001002100000021000000210000002100C9
:1012A00000002100000021000000210001002000BA
:1012B00000002000000020000000200000002000AE
:1012C00000002000000020000000200001001F009E
:1012D00000001F0000001F0000001F0000001F0092
:1012E00000001F0000001F0001001E0000001E0083
:1012F00000001E0000001E000000232C0000B82289
:101300000000561800003A0F0000B8080000B104B1
:101310000000710200003E0100002CFFFFFFFFFFF4
:101320000001010101016265640A002C20737973D8
:1013300074656D2073746F707065642120486561F9
:101340007465725F49443A200042656420686561B3
:1013500074696E67206661696C65640048656174D4
:10136000696E67206661696C656400453120486577
:101370006174696E67206661696C656400486561C7
:1013800074696E67206661696C65640070012C0188
:1013900090012701B0012201C0011D01F0011801D7
:1013A0001002130130020E016002090190020401D3
:1013B000C002FF000003FA004003F5008003F000C4
:1013C000D003EB002004E6007004E100E004DC0040
:1013D0004005D700C005D2004006CD00D006C800A9
:1013E0008007C3003008BE00F008B900C009B4008F
:1013F000B00AAF00B00BAA00D00CA500000EA000F0
:10140000500F9B00C01096005012910000148C00E9
:10141000C0158700B0178200B0197D00D01B78007E
:10142000001E730040206E0090226900F0246400CA
:1014300040275F0090295A00E02B5500102E5000E5
:1014400020304B0010324600E033410090353C0024
:101450001037370070383200A0392D00B03A28001C
:10146000A03B2300603C1E00103D1900903D14007D
:10147000103E0F00703E0A00C03E0500003F000015
:10148000403FFBFF803FF6FFC03FF1FF4531205456
:101490004845524D414C2052554E4157415900420A
:1014A000454420544845524D414C2052554E4157D9
:1014B000415900546865726D616C2052756E617798
:1014C0006179004531204572723A204D41585445AA
:1014D0004D50004572723A204D415854454D5020B0
:1014E000424544004D415854454D5020747269673F
:1014F0006765726564004531204572723A204D4936
:101500004E54454D50004572723A204D494E544557
:101510004D5020424544004D494E54454D50207495
:101520007269676765726564004D383420582059C8
:10153000205A204500202F002042403A0020403A07
:1015400000434F4D4D554E49434154494F4E004481
:10155000525952554E004552524F525300494E4631
:101560004F004543484F00696E206D6F76655F748C
:101570006F282920666565645F76616C75652066F5
:101580006F722058593A002C2065793D0029202D92
:101590003E202865783D002C2073793D0020436F64
:1015A0006E6E656374696E6720776974682076650E
:1015B00072746963616C206C696E65202873783D74
:1015C000002C2065793D0029202D3E202865783D9E
:1015D000002C2073793D0020436F6E6E6563746943
:1015E0006E67207769746820686F72697A6F6E74AD
:1015F000616C206C696E65202873783D003F5370E4
:101600006563696669656420582C5920636F6F7241
:1016100064696E617465206F7574206F6620626FF7
:10162000756E64732E0A003F2852296570656174D7
:101630002076616C7565206E6F7420706C617573B7
:1016400069626C653B206D757374206265206174FE
:10165000206C6561737420312E0A003F2852296581
:1016600070656174206D7573742062652073706598
:10167000636966696564207768656E206E6F7420A3
:101680007573696E6720616E204C43442E0A003FDB
:10169000537065636966696564206E6F7A7A6C65FC
:1016A0002074656D7065726174757265206E6F74FB
:1016B00020706C61757369626C652E0A003F53700F
:1016C000656369666965642066696C616D656E74E1
:1016D0002073697A65206E6F7420706C6175736910
:1016E000626C652E0A003F537065636966696564C4
:1016F000207072696D65206C656E677468206E6F0E
:101700007420706C61757369626C652E0A003F50BD
:1017100072696D65206C656E677468206D75737491
:101720002062652073706563696669656420776807
:10173000656E206E6F74207573696E6720616E2010
:101740004C43442E0A003F537065636966696564C3
:10175000206E6F7A7A6C652073697A65206E6F747B
:1017600020706C61757369626C652E0A003F496E6A
:1017700076616C69642052657472616374696F6E1E
:101780002F556E72657472616374696F6E20726139
:1017900074696F2E204D75737420626520776974AB
:1017A00068696E20356D6D2E0A0020556E72657465
:1017B00072616374696F6E20616D6F756E74206104
:1017C00075746F6D61746963616C6C792073657495
:1017D00020746F20003F556E726574726163746986
:1017E0006F6E206C656E677468206D75737420620F
:1017F00065207370656369666965642E0A003F53EE
:10180000706563696669656420556E72657472619E
:101810006374696F6E206C656E677468206E6F7498
:1018200020706C61757369626C652E0A003F5265A9
:101830007472616374696F6E206C656E6774682082
:101840006D75737420626520737065636966696580
:10185000642E0A003F5370656369666965642052AF
:10186000657472616374696F6E206C656E6774680D
:10187000206E6F7420706C61757369626C652E0ADE
:10188000003F537065636966696564206C617965C2
:101890007220686569676874206E6F7420706C616F
:1018A000757369626C652E0A003F537065636966E3
:1018B000696564206265642074656D706572617429
:1018C000757265206E6F7420706C61757369626CDF
:1018D00065202834302D31343043292E0A00473218
:1018E0003620636F6D6D616E642073746172746510
:1018F000642E2057616974696E6720666F72206874
:1019000065617465722873292E0A002569730025A4
:10191000696D20256973002569682025696D20257A
:10192000697300256964202569682025696D202573
:101930006973002569792025696420256968202557
:10194000696D2025697300656E7175657565696ED1
:10195000672022005072696E7465722073746F7014
:101960007065642064756520746F206572726F7293
:10197000732E2046697820746865206572726F72D4
:1019800020616E6420757365204D39393920746F7C
:1019900020726573746172742E202854656D7065B1
:1019A0007261747572652069732072657365742E37
:1019B00020536574206974206166746572207265B5
:1019C0007374617274696E67290A004E6F204368F0
:1019D00065636B73756D2077697468206C696E65DB
:1019E000206E756D6265722C204C617374204C6999
:1019F0006E653A20004E6F20436865636B73756DAA
:101A00002077697468206C696E65206E756D6265FB
:101A1000722C204C617374204C696E653A2000630F
:101A20006865636B73756D206D69736D6174636850
:101A30002C204C617374204C696E653A20004C690F
:101A40006E65204E756D626572206973206E6F74CD
:101A5000204C617374204C696E65204E756D626513
:101A6000722B312C204C617374204C696E653A20C6
:101A7000004D313130004D333100534420726561E7
:101A800064206572726F720A00446F6E6520707216
:101A9000696E74696E672066696C650A0020496E1C
:101AA00076616C6964206578747275646572200073
:101AB000000000C10000000000000000000087439B
:101AC00000004D4300004D43206E6F7420656E741E
:101AD000657265642E0A0050726F74656374656484
:101AE0002050696E0A0046696C616D656E742075E0
:101AF0007365643A200053746174733A20002C209B
:101B00004C6F6E67657374206A6F623A2000546F81
:101B100074616C2074696D653A200053746174734C
:101B20003A20002C204661696C65643A20002C2024
:101B300046696E69736865643A20005072696E7414
:101B4000733A200053746174733A20005446542051
:101B500053657269616C2044656275673A204E6F07
:101B60007A7A6C652069732068656174696E672E86
:101B70002E2E204A30360A004A3036005446542071
:101B800053657269616C2044656275673A20436FE2
:101B90006E74696E75696E67205344207072696E49
:101BA000742061667465722068656174696E672E61
:101BB0002E2E204A30340A004A3034005446542035
:101BC00053657269616C2044656275673A204E6F97
:101BD0007A7A6C652068656174696E672069732024
:101BE000646F6E652E2E2E204A30370A004A303739
:101BF0000020573A005446542053657269616C20A6
:101C000044656275673A204265642069732068659F
:101C10006174696E672E2E2E204A30380A004A30D1
:101C200038005446542053657269616C20446562E3
:101C300075673A204265642068656174696E672043
:101C4000697320646F6E652E2E2E204A30390A008B
:101C50004A30390020573A00205A3A0020593A00B9
:101C600020436F756E7420583A0020453A00205A80
:101C70003A0020593A00583A003A004361703A005D
:101C80004B64200023646566696E652044454641C7
:101C9000554C545F004B69200023646566696E658E
:101CA0002044454641554C545F004B70200023644E
:101CB0006566696E652044454641554C545F005049
:101CC0004944204175746F74756E652066696E694C
:101CD00073686564212050757420746865206C6198
:101CE0007374204B702C204B6920616E64204B6410
:101CF00020636F6E7374616E74732066726F6D20F3
:101D000062656C6F7720696E746F20436F6E6669D1
:101D10006775726174696F6E2E680A0050494420BD
:101D20004175746F74756E65206661696C656421B8
:101D30002074696D656F75740A00453120544845FB
:101D4000524D414C2052554E415741590042454455
:101D500020544845524D414C2052554E415741590F
:101D600000546865726D616C2052756E617761799F
:101D70000045312048656174696E67206661696C51
:101D80006564004265642068656174696E672066F9
:101D900061696C65640048656174696E672066619D
:101DA000696C656400504944204175746F74756EA8
:101DB00065206661696C6564212054656D7065728B
:101DC000617475726520746F6F20686967680A00B6
:101DD000204B643A2000204B693A2000204B703A97
:101DE00020000A20436C61737369632050494420CA
:101DF0000A002054753A2000204B753A2000206DCF
:101E000061783A2000206D696E3A200020643A2003
:101E10000020626961733A20005049442041757482
:101E20006F74756E652073746172740A0050494452
:101E3000204175746F74756E65206661696C6564A8
:101E4000212054656D706572617475726520746FC0
:101E50006F20686967680A00504944204175746FB3
:101E600074756E65206661696C65642120426164E9
:101E7000206578747275646572206E756D62657226
:101E80000A004F66660A0046616465204865696716
:101E900068742000426564204C6576656C696E67E5
:101EA00020004661696C656420746F20656E616214
:101EB0006C6520426564204C6576656C696E670AC6
:101EC000004D65736820426564204C6576656C2022
:101ED000646174613A0A004D65736820706F696EC1
:101EE000742063616E6E6F74206265207265736F1B
:101EF0006C7665640A004D34323120696E636F720E
:101F00007265637420706172616D657465722075AD
:101F1000736167650A002044454255473A204E5494
:101F20004F202D204149334D20506175736520535A
:101F3000746174652073657420746F3A2000496E73
:101F4000736572742066696C616D656E7420616E74
:101F5000642073656E64204D3130380A0053656E1D
:101F600064204D31303820746F2068656174206EB4
:101F70006F7A7A6C650A0044454255473A204E6FA5
:101F80007A7A6C652074696D656F757420666C6112
:101F900067207365740A002044454255473A204E35
:101FA000544F202D204149334D20506175736520D9
:101FB00053746174652073657420746F3A2000490E
:101FC0006E736572742066696C616D656E742061F4
:101FD0006E6420707265737320627574746F6E2006
:101FE000286F72204D313038290A00444542554748
:101FF0003A20536574205446547374617465207498
:102000006F20534450415553455F5245510A004497
:10201000454255473A20456E746572204D36303042
:1020200020544654737461746520726F7574696EC0
:10203000650A002044454255473A204D363030204D
:102040002D204149334D20506175736520537461D3
:1020500074652073657420746F3A20004D383838E9
:1020600020636F6F6C646F776E20726F7574696E2A
:102070006520646F6E650A004D38340054617267E4
:102080006574206E6F7420726561636865642C20CE
:1020900071756575656420616E206172630A005513
:1020A0006C7472616261736520636F6F6C646F77CB
:1020B0006E20737461727465640A0047322F47336F
:1020C0002062616420706172616D65746572730A6B
:1020D00000206F6620004D424C2047323920706F3F
:1020E000696E742000290A0059206F7574206F668C
:1020F0002072616E67652028312D00290A00582062
:102100006F7574206F662072616E67652028312DAF
:10211000004D6573682070726F62696E6720646F2E
:102120006E652E0A005374617274206D65736820A9
:1021300070726F62696E6720776974682022473217
:1021400039205331222066697273742E0A00473297
:10215000380A473239205332004D65736820626572
:1021600064206C6576656C696E6720686173206EAB
:102170006F20646174612E0A0053746174653A20A3
:102180000053206F7574206F662072616E67652042
:1021900028302D35292E0A004D65736820706F692F
:1021A0006E742063616E6E6F742062652072657359
:1021B0006F6C7665640A00456E642066696C652004
:1021C0006C6973740A00426567696E2066696C65A4
:1021D000206C6973740A004D31323500286E6F200F
:1021E00066696C65290043757272656E7420666954
:1021F0006C653A20005344207072696E74696E6792
:10220000206279746520004E6F74205344207072F0
:10221000696E74696E670A0044656C6574696F6EF7
:10222000206661696C65642C2046696C653A200003
:1022300046696C652064656C657465643A0050722B
:10224000696E742074696D653A20006F6E2E0A0005
:102250006F66662E0A004732362044656275672035
:10226000006F66660062155D1556154F15411544E1
:10227000454255473A004D3131332053006F6B00D2
:102280002C20002C2000544845524D414C5F5052A8
:102290004F54454354494F4E004155544F524550B9
:1022A0004F52545F53445F53544154555300454D6E
:1022B000455247454E43595F5041525345520043A2
:1022C0004153455F4C494748545F4252494748543F
:1022D0004E45535300544F47474C455F4C49474880
:1022E000545300534F4654574152455F504F574542
:1022F00052004255494C445F50455243454E5400AC
:102300004C4556454C494E475F44415441005A5F45
:1023100050524F4245004155544F4C4556454C0094
:102320005052494E545F4A4F420050524F47524517
:102330005353004155544F5245504F52545F5445EA
:102340004D5000564F4C554D45545249430045455C
:1023500050524F4D0053455249414C5F584F4E5FCC
:10236000584F4646004649524D574152455F4E41EF
:102370004D453A4D61726C696E20312E312E3920F7
:10238000284769746875622C20646176696472619B
:102390006D69726F29204D41524C494E2D41493390
:1023A0004D5F56455253494F4E3A76312E342E36B4
:1023B00020534F555243455F434F44455F55524C60
:1023C0003A68747470733A2F2F6769746875622E57
:1023D000636F6D2F646176696472616D69726F2FCE
:1023E0004D61726C696E2D4149334D2050524F54EE
:1023F0004F434F4C5F56455253494F4E3A312E3062
:10240000204D414348494E455F545950453A416E2D
:10241000796375626963206933204D656761204582
:10242000585452554445525F434F554E543A31200B
:10243000555549443A63656465326132662D3431DD
:1024400061322D343734382D396231322D633535D0
:102450006336326633363766660A002F2F20002037
:102460005400205200416363656C65726174696F4A
:102470006E3A2050005741524E494E4721204C6F32
:1024800077205A204A65726B206D6179206C6561F6
:102490006420746F20756E77616E7465642070615E
:1024A000757365732E0A00546F6F20666172206623
:1024B000726F6D207265666572656E636520706F00
:1024C000696E740A00205A00205900580020204DDF
:1024D00061783A2000205A00205900580020204DF1
:1024E000696E3A20004F6E20004F666600536F669B
:1024F0007420656E6473746F70733A200020466CAC
:102500006F773A2000000136372603FFFFFFFF3CBC
:102510003D3813FFFFFFFF2E303E12FFFFFFFFFF8E
:10252000FFFF0809FF2C071A1C18FFFFFF08440AC9
:102530002C43496E76616C696420657874727564A9
:1025400065720A0020643A0020693A0020703A005F
:1025500020643A0020693A0020703A004E6F2063F0
:10256000617365206C696768740A00454550524F75
:102570004D204F4B0A003F4B2076616C7565206FF4
:102580007574206F662072616E67652028302D316A
:1025900030292E0A00416476616E6365204B3D0050
:1025A0004163746976652045787472756465723A22
:1025B0002000496E76616C69642065787472756478
:1025C00065720A00526573656E643A20006F6B0095
:1025D00020746F6F206C6F6E6720657874727573EE
:1025E000696F6E2070726576656E7465640A0000AE
:1025F000002100240027002A002D003000330001B4
:10260000010000040107010A010000220025002842
:10261000002B002E003100340002010000050108EB
:10262000010B01000020002300260029002C002FB0
:102630000032000001000003010601090105050543
:1026400005070508080808020202020A0A08080429
:102650000404040101010101010101030303030357
:10266000030303040707070C0C0C0C0C0C0C0C02E6
:1026700002020206060606060606060B0B0B0B0BED
:102680000B0B0B01021020200808102040102040E6
:102690008002010201080402010102040810204026
:1026A0008080402010080402018004020180402044
:1026B000100804020108040201010204081020406D
:1026C00080010204081020408000000A0B02090C5F
:1026D0000D0E0807030401000000000000000000C8
:1026E00000000000000000000000000000000000EA
:1026F00000000000001211100000000000000000A7
:1027000000000000000000000000000000000002C7
:102710005446542053657269616C20446562756744
:102720003A2046696C616D656E742072756E6F75C6
:10273000742E2E2E204A31350A004A3135004A3196
:1027400032004A3137002020506C616E6E65724253
:10275000756666657242797465733A200020467228
:102760006565204D656D6F72793A2000436F6D701D
:10277000696C65643A204465632031382032303119
:10278000390A00207C20417574686F723A202864F1
:102790006176696472616D69726F290A0032303145
:1027A000392D30342D303300204C61737420557036
:1027B00064617465643A200076312E342E360A0046
:1027C0004D61726C696E2D4149334D00312E312EB1
:1027D000390A004D61726C696E0020536F66747720
:1027E0006172652052657365740A002057617463D5
:1027F00068646F672052657365740A002042726FC7
:10280000776E206F75742052657365740A002045D9
:10281000787465726E616C2052657365740A00503D
:102820006F77657255700A0073746172740A004D97
:102830003234004D3233202573006175746F256981
:102840002E67006572726F722077726974696E67A5
:1028500020746F2066696C650A00205A3A0020597E
:102860003A0020583A00656E6473746F7073206884
:1028700069743A2000446F6E6520736176696E67F3
:102880002066696C652E0A004D323900556E6B6EFC
:102890006F776E20636F6D6D616E643A2022004920
:1028A0006E736572742066696C616D656E7420610B
:1028B0006E6420707265737320627574746F6E201D
:1028C000286F72204D313038290A00204445425586
:1028D000473A204E544F202D204149334D2050611E
:1028E0007573652053746174652073657420746F0B
:1028F0003A200043616E6E6F7420656E74657220BD
:102900007375626469723A200044454255473A2023
:102910004D3630302050617573652063616C6C6595
:10292000640A004D363030002044454255473A2075
:102930004149334D2050617573652053746174654E
:102940003A20005370656369616C204D656E753A7D
:102950002046696C616D656E744368616E676520C1
:10296000526573756D650A005370656369616C200B
:102970004D656E753A2046696C616D656E7443688D
:10298000616E67652050617573650A004739310AC9
:102990004731205A2D302E310A47393000537065A7
:1029A0006369616C204D656E753A205A20446F77DB
:1029B0006E20302E310A004739310A4731205A2D16
:1029C000302E30320A473930005370656369616CCC
:1029D000204D656E753A205A20446F776E20302E58
:1029E00030320A004739310A4731205A2B302E3015
:1029F000320A473930005370656369616C204D6558
:102A00006E753A205A20557020302E30320A004719
:102A100039310A4731205A2B302E310A47393000DC
:102A20005370656369616C204D656E753A205A205C
:102A3000557020302E310A0047323920533200536E
:102A400070656369616C204D656E753A204E6578DE
:102A500074204D65736820506F696E740A004732A8
:102A600039205331005370656369616C204D656E88
:102A7000753A205374617274204D657368204C65FB
:102A800076656C696E670A004D31343020533630FC
:102A9000005370656369616C204D656E753A205016
:102AA000726568656174204265640A004D35303294
:102AB000005370656369616C204D656E753A204CFA
:102AC0006F61642046572044656661756C74730AB3
:102AD000004D353030005370656369616C204D6581
:102AE0006E753A205361766520454550524F4D0A28
:102AF000004D33303320452D3120533630204336BE
:102B0000205531005370656369616C204D656E75A9
:102B10003A204175746F2054756E6520486F746259
:102B20006564205069640A004D31303620533230DC
:102B3000340A4D3330332045302053323130204376
:102B40003135205531005370656369616C204D65E6
:102B50006E753A204175746F2054756E6520486F0C
:102B600074656E64205049440A002044454255472C
:102B70003A204E544F20646F6E652C204149334DEE
:102B80002050617573652053746174653A20004468
:102B9000454255473A20436C65617220666C616717
:102BA000730A0044454255473A20526573756D6576
:102BB0002068656174696E670A004D3130380044E1
:102BC000454255473A2053656E64207265686561D9
:102BD00074204D3130380A003C5370656369616C74
:102BE0005F4D656E753E003C5370656369616C5F57
:102BF0004D656E753E002F002F002F002F2E2E0AE0
:102C0000002F2E2E002F2E2E003C5370656369611D
:102C10006C5F4D656E753E0A003C5370656369617B
:102C20006C204D656E753E003C5370656369616C48
:102C3000204D656E753E003C46696C616D656E7435
:102C40004368616E676520526573756D653E003C33
:102C500046696C616D656E744368616E676520528C
:102C60006573756D653E003C46696C616D656E749B
:102C70004368616E67652050617573653E003C4630
:102C8000696C616D656E744368616E676520506143
:102C90007573653E003C4C6F616420465720446567
:102CA0006661756C74733E003C4C6F6164204657DE
:102CB0002044656661756C74733E003C4175746FA9
:102CC0002054756E6520486F7462656420504944D5
:102CD0003E003C4175746F2054756E6520486F74DA
:102CE000626564205049443E003C4175746F205435
:102CF000756E6520486F74656E64205049443E00CF
:102D00003C4175746F2054756E6520486F74656E14
:102D100064205049443E003C457869743E003C457F
:102D20007869743E003C5361766520454550524FAA
:102D30004D3E003C5361766520454550524F4D3E17
:102D4000003C4E657874204D65736820506F696E45
:102D5000743E003C4E657874204D65736820506F5A
:102D6000696E743E003C5374617274204D657368E3
:102D7000204C6576656C696E673E003C53746172E9
:102D800074204D657368204C6576656C696E673E8E
:102D9000003C50726568656174206265643E003C69
:102DA00050726568656174206265643E003C5A201B
:102DB000446F776E20302E313E003C5A20446F77AE
:102DC0006E20302E313E003C5A20446F776E20300A
:102DD0002E30323E003C5A20446F776E20302E3029
:102DE000323E003C5A20557020302E30323E003C9E
:102DF0005A20557020302E30323E003C5A205570FB
:102E000020302E313E003C5A20557020302E313E6D
:102E1000004A333420004A33352000563131360021
:102E20004A333320004D3530300A4D343230205390
:102E3000310A4731205A313020463234300A473186
:102E40002058302059302046363030300054465417
:102E5000204C6576656C20736176696E67206461CD
:102E600074612E2E2E0A00544654205365726961F7
:102E70006C2044656275673A204C6576656C696EB6
:102E800067207072696E742074657374207769743A
:102E9000682068656174696E6720646F6E652E2EA8
:102EA0002E204A32320A004A323200544654204C14
:102EB0006576656C20636865636B2068656174691D
:102EC0006E672E2E2E0A0054465420536572696197
:102ED0006C2044656275673A204C6576656C696E56
:102EE00067207072696E74207465737420646F6EED
:102EF000652E2E2E204A32320A004A3232005446C3
:102F000054204C6576656C20636865636B206E6F3A
:102F10002068656174696E672E2E2E0A0047312085
:102F20005A3520463234300A473120583139302062
:102F30005932302046363030300A4731205A30205E
:102F40004632343000544654204C6576656C20631C
:102F50006865636B706F696E74206261636B207269
:102F6000696768742E2E2E0A004731205A35204694
:102F70003234300A47312058313930205931393014
:102F80002046363030300A4731205A30204632341D
:102F90003000544654204C6576656C206368656348
:102FA0006B706F696E74206261636B207269676811
:102FB000742E2E2E0A004731205A352046323430E6
:102FC0000A473120583139302059323020463630C6
:102FD00030300A4731205A302046323430005446CF
:102FE00054204C6576656C20636865636B706F690F
:102FF0006E742066726F6E742072696768742E2E0C
:103000002E0A004739310A4731205A3130204632E2
:1030100034300A4739300A4732380A4732390A47CA
:103020003120583230205932302046363030300A84
:103030004731205A30204632343000544654204C18
:103040006576656C696E672073746172746564205F
:10305000616E64206D6F76696E7420746F20667285
:103060006F6E74206C6566742E2E2E0A00544654C2
:1030700020456E746572696E67206C6576656C209C
:103080006D656E75652E2E2E0A00544654205365CC
:103090007269616C2044656275673A20534420630D
:1030A00061726420696E697469616C697A65642E05
:1030B0002E2E204A30320A004A3032005446542024
:1030C00053657269616C2044656275673A20436F8D
:1030D0006F6C696E6720646F776E2E2E2E204A31DA
:1030E000320A004A3132004731205A3130004F4B0A
:1030F000004731205A3130004739300047312045F0
:1031000025694635303000473120452D302E314677
:1031100025690047312045302E3146256900473169
:10312000205A2569462569004731205A2D302E3115
:10313000462569004731205A302E3146256900471F
:10314000312059256946256900473120592D302EF7
:10315000314625690047312059302E314625690016
:1031600047312058256946256900473120582D30C0
:103170002E314625690047312058302E31462569C9
:10318000004739310047323800473238205A00476B
:10319000323820590047323820580041323056200A
:1031A000004731205A31300054465420536572692B
:1031B000616C2044656275673A205374617274696A
:1031C0006E67205344205072696E742E2E2E204A52
:1031D00030340A004A3034002044454255473A20F2
:1031E0004149334D20506175736520537461746596
:1031F0003A20005446542053657269616C2044653E
:103200006275673A2046696C65206F70656E20664E
:1032100061696C65642E2E2E204A32310A004A32D2
:1032200031005446542053657269616C20446562D4
:1032300075673A2046696C65206F70656E207375FE
:10324000636365737366756C2E2E2E204A32300AC6
:10325000004A3230002044454255473A2041493324
:103260004D2050617573652053746174653A200078
:103270004A3136005446542053657269616C2044CB
:10328000656275673A205344207072696E742073CA
:103290007461727465642E2E2E204A30340A004AFE
:1032A0003034002044454255473A204149334D20AF
:1032B00050617573652053746174653A2000454E02
:1032C0004400464E20004A3032003939393A393903
:1032D00039004D0048004137562000413656202D18
:1032E0002D2D004A30320041365620005A3A200037
:1032F000593A2000583A20004135560041345620B2
:103300000041335620004132562000413156200002
:1033100041305620005446542053657269616C2038
:10332000436F6D6D616E643A2000204445425547FD
:103330003A204149334D20506175736520537461C3
:1033400074653A20004D3237004D38340044454210
:1033500055473A20534453544F503A205061726BB2
:103360002058590A0044454255473A205344535483
:103370004F503A205061726B205A0A004739310A87
:10338000473120452D312046313830300A47393019
:10339000002044454255473A204149334D20506171
:1033A0007573652053746174653A20005446542047
:1033B00053657269616C2044656275673A205344B5
:1033C000207072696E742073746F707065642E2E35
:1033D0002E204A31360A004A3136005446542053D2
:1033E000657269616C2044656275673A20534420B8
:1033F0007072696E742070617573656420646F6E9D
:10340000652E2E2E204A31380A004D313235204C9F
:10341000320044454255473A20526567756C6172E7
:10342000205061757365207265717565737465648C
:103430000A002044454255473A204149334D205027
:10344000617573652053746174653A20004A3138A0
:10345000002044454255473A204149334D205061B0
:103460007573652053746174653A20005446542086
:1034700053657269616C2044656275673A205344F4
:10348000207072696E7420646F6E652E2E2E204A35
:1034900031340A004A31340054465420536572696D
:1034A000616C2044656275673A2053442063617201
:1034B0006420696E7365727465642E2E2E204A3006
:1034C000300A004A30300054465420536572696116
:1034D0006C2044656275673A2053442063617264CE
:1034E0002072656D6F7665642E2E2E204A30310A6B
:1034F000004A3031005446542053657269616C2093
:1035000044656275673A20486F74656E642074651F
:103510006D70657261747572652061626E6F726D37
:10352000616C2E2E2E204A32300A004A31300020A3
:1035300066697273740A005A0059005800486F6D2A
:1035400065200044454255473A204A3233205368AB
:103550006F772066696C616D656E742070726F6D37
:1035600070740A004A3233002044454255473A20DD
:103570004149334D20506175736520537461746502
:103580003A200044454255473A204D323520736574
:103590006E742C207061726B696E67206E6F7A7A20
:1035A0006C650A004D32350044454255473A204685
:1035B000696C616D656E742072756E6F7574202D07
:1035C00020526574726163742C206265657020619D
:1035D0006E64207061726B2E0A00473930004731EB
:1035E00020452D33204631383030004739310044F2
:1035F000454255473A2046696C616D656E742052AC
:10360000756E6F75742050617573650A004445428C
:1036100055473A20526567756C6172205061757329
:10362000650A002044454255473A204149334D2020
:1036300050617573652053746174653A2000577248
:103640006974696E6720746F2066696C653A200042
:103650006F70656E206661696C65642C2046696CCC
:10366000653A20006F70656E206661696C65642C38
:103670002046696C653A200046696C652073656C6C
:1036800065637465640A002053697A653A200046D0
:10369000696C65206F70656E65643A20002066690C
:1036A0006C653A2000646F696E67006672657368C6
:1036B000004E6F772000454E4420535542524F55DF
:1036C00054494E450A002220706F73002220706119
:1036D00072656E743A2200535542524F5554494E0A
:1036E000452043414C4C207461726765743A220056
:1036F000747279696E6720746F2063616C6C2073DB
:1037000075622D67636F64652066696C65732077E9
:1037100069746820746F6F206D616E79206C6576B6
:10372000656C732E204D4158206C6576656C206960
:10373000733A006F70656E206661696C65642C2059
:1037400046696C653A200043616E6E6F74206F703D
:10375000656E20737562646972200054465420536C
:10376000657269616C2044656275673A204B696CCB
:103770006C20636F6D6D616E642E2E2E204A313188
:103780000A004A3131005072696E746572206861B6
:103790006C7465642E206B696C6C28292063616CE5
:1037A0006C6564210A0044454255473A204E6F7AC1
:1037B0007A6C652074696D656F757420666C6167DD
:1037C00020636C65617265640A0044454255473A5E
:1037D0002053657420506175736520616761696E5F
:1037E0002062656361757365206F662074696D651D
:1037F0006F75740A0044454255473A204E6F7A7AF5
:103800006C652074696D656F757420666C616720E6
:10381000636C65617265640A0044454255473A200D
:1038200053657420506175736520616761696E200E
:1038300062656361757365206F662074696D656F7D
:1038400075740A0044454255473A2046696C616DDB
:10385000656E7420506175736520466C61672063E6
:103860006C65617265640A0044454255473A204DD3
:10387000323420526573756D652066726F6D204617
:10388000696C616D656E742052756E6F75740A0097
:103890004D32340044454255473A2046696C616DCB
:1038A000656E74204368616E676520466C616720B1
:1038B000636C65617265640A0044454255473A206D
:1038C0005374617274204D31303820726F75746991
:1038D0006E650A002044454255473A204149334D20
:1038E0002050617573652053746174653A2000201F
:1038F00044454255473A204149334D205061757344
:10390000652053746174653A200044454255473A36
:10391000204D323420526573756D652066726F6D6F
:1039200020726567756C61722070617573650A003D
:103930002044454255473A204149334D2050617556
:1039400073652053746174653A20004D323400442D
:10395000454255473A20526567756C617220537431
:103960006172740A002044454255473A2041493368
:103970004D2050617573652053746174653A200061
:1039800044454255473A204D3130382052657375D1
:103990006D6520646F6E650A0044454255473A20C4
:1039A0004D31303820526573756D652063616C6CE4
:1039B00065640A004D313038002044454255473A8D
:1039C000204149334D2050617573652053746174F3
:1039D000653A200044454255473A2053746F707051
:1039E000656420616E6420636C65617265640A00C1
:1039F00053442063617264206F6B0A006F70656EC0
:103A0000526F6F74206661696C65640A00766F6C32
:103A1000756D652E696E6974206661696C65640AEE
:103A2000004572726F723A00534420696E697420C7
:103A30006661696C0A006563686F3A00DEEB3BEA19
:103A400011241FBECFEFD1E2DEBFCDBF00E00CBF1F
:103A500014E0A0E0B2E0E0EFFFEF01E00BBF02C036
:103A600007900D92A433B107D9F72CE1A4E3B4E099
:103A700001C01D92A936B207E1F71DE1CFE1DDE1FA
:103A800000E006C021970109802FFE010E9454FF2B
:103A9000CE31D10780E00807A9F70E9485ED0C948C
:103AA000E7FF0C94000090916F00292F227091FF86
:103AB00005C090916F009D7F90936F0034E0839FCD
:103AC000C0011124FC01E453FC4E4081518162810C
:103AD00073818F57934FFC014083518362837383BB
:103AE00081E080933505222329F080916F00826068
:103AF00080936F000895BC0120917F0C3091800C61
:103B000040917F0C5091800C2417350731F481E0EF
:103B10002617370709F080E008959A01F1CFEF9258
:103B2000FF920F931F93E0922D05F0922E050093C4
:103B30002F05109330056093310570933205809303
:103B400033059FEFFF27621B730B840B30F48095C6
:103B500070956195790B890B99279093F60CA6E0E7
:103B60006A9F0092EA0C512DEE277A9F500DE11DBD
:103B70008A9FE00D5093EB0CE093EC0CAFE06A9F52
:103B80000092EE0C512DEE277A9F500DE11D8A9F79
:103B9000E00D5093EF0CE093F00CAAE06A9F0092C6
:103BA000F20C512DEE277A9F500DE11D8A9FE00DFA
:103BB0005093F30CE093F40C1F910F91FF90EF9052
:103BC00008958091571690915816891B8F7019F49B
:103BD00090E080E0089590915416992351F083303D
:103BE00030F48FEF890F19F080935416F1CF1092B3
:103BF00054168091581628E6829FC00111248E54D5
:103C00009A4FFC01208120FDE3CF209158162F5FB1
:103C10002F70209355163091581620915616321356
:103C200004C0209155162093561608959F92AF9286
:103C3000BF92CF92DF92EF92FF920F931F93CF9399
:103C4000DF9300D01F921F92CDB7DEB7EAEFF9E005
:103C50000027BB27462F572FA82FAA2341F4A52FB3
:103C6000542FB85FAA2319F4A52F5527B85FA031A8
:103C700038F45295A295452F4F70507FA42BBC5F0E
:103C8000A03428F4550FAA1F550FAA1FBE5FA038F5
:103C900018F4550FAA1FB395550FAA1FEA0FF01F6E
:103CA000449151E0AA27B85079F1C0F0B0FF02C0AA
:103CB000440F551FB1FF04C0440F551F440F551F3B
:103CC000B2FF06C052954295142F1F70407F512BB2
:103CD000B3FF1AC0A52F542F442716C0B195B0FFCB
:103CE00002C055954795B1FF04C055954795559528
:103CF0004795B2FF05C05295407F4295452B5F70B6
:103D0000B3FF02C0452F5527DD24CC24BB24B2E0ED
:103D1000649FD018C108B00AB00B749FC018B108D6
:103D2000B00B849FB018B109659FC018B108B00BE3
:103D3000759FB018B109859FB0196A9FB018B10975
:103D40007A9FB0194D9DA12C9924332799272227BA
:103D50005D9DA00C911C301F901F201FAD9D900CED
:103D6000311D901F201F4C9DA00C911C301F901FD7
:103D7000201F5C9D900C311D901F201FAC9D300DAD
:103D8000911D201F4B9D900C311D901F201F5B9D8E
:103D9000300D911D201FAB9D900D211D4B9F300DAF
:103DA000911D201F5B9F900D211DAB9F200DB1E049
:103DB000BB24CC24DD24639FD018C108B00AB00B0B
:103DC000739FC018B108B00B839FB018B109699FE9
:103DD000C018B108B00B799FB018B109899FB0190C
:103DE000629FB018B109729FB019D61AC70AB80AF3
:103DF00020F0B1E03B0F901F201F1124792F632F7B
:103E000090E0822F0F900F900F900F900F90DF9106
:103E1000CF911F910F91FF90EF90DF90CF90BF90C7
:103E2000AF909F9008952F923F924F925F926F9222
:103E30007F928F929F92AF92BF92CF92DF92EF923A
:103E4000FF920F931F93CF93DF93CDB7DEB76297A7
:103E50000FB6F894DEBF0FBECDBF588B4F87DC0185
:103E60008D909D90AD90BC90DB018D919D910D90BA
:103E7000BC91A02D89839A83AB83BC8320E030E082
:103E800040E251E4C501B4010E9457FC28E031E250
:103E900044E85CE30E9454F80E949CFD64300CF4FA
:103EA0001FC163E0E62E660FFF0887010F5F1F4FFB
:103EB00020E030E040E251E469817A818B819C818D
:103EC0000E9457FC23E436E142EB5CE30E9454F885
:103ED0000E949CFD64300CF407C163E0262E660F3F
:103EE0003308F701EE0FFF1FEE0FFF1FEF55F94EDE
:103EF000408051806280738025E02E9DF0012F9DCF
:103F0000F00D1124FE83ED83E20DF31DEE0FFF1F74
:103F1000EE0FFF1FE959FB4FC080D180E280F38094
:103F2000F801EE0FFF1FEE0FFF1FEF55F94EA30133
:103F3000920160817181828193810E9457FC6F831D
:103F4000788789879A87A3019201C501B4010E94ED
:103F500057FC6B877C878D879E87A5E0A09FC0015B
:103F6000A19F900D11249A8B898BFC01E20DF31D0A
:103F7000EE0FFF1FEE0FFF1FE959FB4FA701960140
:103F800060817181828193810E9457FC2F813885E5
:103F900049855A850E9434FD2B853C854D855E857B
:103FA0000E9454F8A70196010E9458FC6B017C0105
:103FB00081010F5F1F4FED81FE81E00FF11FEE0FBA
:103FC000FF1FEE0FFF1FE959FB4F408051806280B9
:103FD0007380F101EE0FFF1FEE0FFF1FE357F94E45
:103FE00080809180A280B380E989FA89E00FF11F77
:103FF000EE0FFF1FEE0FFF1FE959FB4FA3019201C8
:1040000060817181828193810E9457FC2F81388564
:1040100049855A850E9434FD2B853C854D855E85FA
:104020000E9454F8A30192010E9458FCA701960136
:104030000E9457FC2B013C01000F111F000F111FA4
:10404000F801E357F94EA5019401608171818281E5
:1040500093810E9457FC9B01AC01C301B2010E94F5
:1040600034FD2B013C01A501940169817A818B818A
:104070009C810E9457FC9B01AC01C301B2010E94CC
:1040800054F8A70196010E9458FCEF85F889208119
:104090003181428153810E9454F820916304309110
:1040A000640440916504509166040E9458FC629635
:1040B0000FB6F894DEBF0FBECDBFDF91CF911F9139
:1040C0000F91FF90EF90DF90CF90BF90AF909F90B7
:1040D0008F907F906F905F904F903F902F900895BA
:1040E00067FFE0CE60E0DECE67FFF8CE60E0F6CEA0
:1040F0008F929F92AF92BF92CF92DF92EF92FF92F8
:10410000CF93DF93EC018090C8139090C913A090D7
:10411000CA13B090CB1320E030E0A901C501B4016F
:104120000E94EFF7882309F454C0C880D980EA8040
:10413000FB80A7019601C501B4010E94EFF7181694
:104140000CF04CC02091BF133091C0134091C113AB
:104150005091C213C701B6010E94EFF7882331F1D5
:10416000C092BF13D092C013E092C113F092C21359
:104170002091C3133091C4134091C5135091C613BD
:10418000688179818A819B810E9454F89B01AC01EE
:1041900060E070E080E89FE30E9457FC60931102AA
:1041A0007093120280931302909314026091110293
:1041B000709112028091130290911402DF91CF91BD
:1041C000FF90EF90DF90CF90BF90AF909F908F9037
:1041D000089560E070E080E89FE3F0CF60E070E079
:1041E000CB01ECCFCF93DF9380919405659959C0B3
:1041F000816080939405809194054A9954C08260AF
:1042000080939405809194054B994FC0846080936E
:1042100094058091940590919305981709F447C0EF
:1042200092E090939205809393058091900F88235C
:1042300009F44AC0C091720CC0FF0FC08091340CC9
:1042400080FF0BC08091910580FF07C08091A50F72
:1042500081608093A50F80E026DCC1FF0FC08091B4
:10426000340C81FF0BC08091910581FF07C08091C4
:10427000A50F82608093A50F81E015DCC2FF24C0EA
:104280008091340C82FF20C08091910582FF1CC078
:104290008091A50F84608093A50F82E0DF91CF917C
:1042A00002CC8E7FA6CF8D7FABCF8B7FB0CF80919E
:1042B0009205882309F4B9CF81508093920581112A
:1042C000B4CF90939105B1CFDF91CF9108951F9313
:1042D000CF93DF93182FEB01FE018491219681117A
:1042E0000AC0C4ECD7E0FE0184912196882331F006
:1042F0000E94A082F8CF0E94A082EECFCFEBD7E041
:10430000112311F0C5EBD7E0FE018491219688239B
:1043100019F00E94A082F8CF8AE0DF91CF911F911F
:104320000C94A082CF93DF938F3C9240A1F0C1E226
:10433000DAE3FE018491219681110AC0C6E0D4E03F
:10434000FE0184912196882351F00E94A082F8CF2B
:104350000E94A082EECF80E0DF91CF91089581E0AE
:10436000FBCF80917E0F882341F040E150E063E372
:1043700070E08FE79FE00C94BCFB08952F923F9272
:104380004F925F926F927F928F929F92AF92BF9265
:10439000CF92DF92EF92FF920F931F93CF93DF9311
:1043A000CDB7DEB76C970FB6F894DEBF0FBECDBFAA
:1043B0008C015B015A834983FC01EE5AFF4F208137
:1043C000318142815381298B3A8B4B8B5C8BCA01A3
:1043D000B9010E94F3F76B017C01D5012D913D914C
:1043E0004D915C910E9454F80E941EFD0E94A1FD17
:1043F0004B015C01E981FA81208131814281538145
:10440000C701B6010E9454F80E941EFD0E94A1FD42
:1044100089869A86AB86BC8629853A854B855C85DC
:10442000283731054105510540F428E730E040E0E8
:1044300050E029873A874B875C876D837E838F8323
:1044400098874D815E816F81788548375105610578
:10445000710540F468E770E080E090E06D837E8352
:104460008F839887F801E25AFF4F40805180628025
:104470007380C301B2010E94F5F769837A838B834D
:104480009C8369857A858B859C850E94F3F76D8B6B
:104490007E8B8F8B988F20E030E0A90169817A8133
:1044A0008B819C810E94EFF7882309F4E1C1A70169
:1044B0009601C701B6010E9454F84B015C012D8999
:1044C0003E894F89588DCA01B9010E9454F89B0159
:1044D000AC01C501B4010E9457FC4B015C0129816C
:1044E0003A814B815C81CA01B9010E9458FC9B0151
:1044F000AC01C501B4010E9434FD0E941EFD0E9462
:10450000A1FD6D877E878F87988B66277727CB01E4
:1045100064197509860997090E94F5F74B015C013A
:104520006D817E818F8198850E94F3F72B013C017C
:1045300020E030E0A901C501B4010E94EFF7882313
:1045400009F49AC1A3019201C301B2010E9454F877
:10455000698F7A8F8B8F9C8FA7019601C701B60157
:104560000E9454F89B01AC01698D7A8D8B8D9C8DD6
:104570000E9457FC6B017C01A5019401C501B401A7
:104580000E9458FC9B01AC01C701B6010E9434FD9A
:104590000E94CDFDD80195968D909D90AD90BC90D8
:1045A0009897750164012D853E854F855889C21AFB
:1045B000D30AE40AF50A0E94A1FDC61AD70AE80A3E
:1045C000F90AF7FE8EC02D893E894F89588DCA01A0
:1045D000B9010E9454F86B017C0129813A814B8119
:1045E0005C81CA01B9010E9458FC698B7A8B8B8B64
:1045F0009C8B20E030E0A90169817A818B819C81CC
:104600000E94EFF7882309F43BC1C501B4010E9461
:10461000F3F729893A894B895C890E9454F8A701EC
:1046200096010E9457FC6D877E878F87988BA30128
:104630009201C301B2010E9454F89B01AC016D8547
:104640007E858F8598890E9458FC2B013C0120E0D3
:1046500030E040E850E469817A818B819C810E943E
:1046600054F89B01AC01C301B2010E9434FD0E94C9
:104670001EFD2B013C0120E030E0A9010E947EFEDE
:1046800018161CF0412C512C3201C301B2010E94BA
:10469000A1FD6D877E878F87988B86169706A80663
:1046A000B90620F48D869E86AF86B88A6D857E8594
:1046B0008F8598890E94F3F729893A894B895C890B
:1046C0000E9454F8A70196010E9458FC0E94C3FE64
:1046D0000E94A1FD698B7A8B8B8B9C8BC12CD12C7A
:1046E000760169897A898B899C8929853A854B85E8
:1046F0005C85621B730B840B950B0E94F3F7298179
:104700003A814B815C810E9434FD20E034E244EF29
:1047100059E40E9454F80E94A1FD4B015C01698993
:104720007A898B899C892D813E814F815885621BB6
:10473000730B840B950B0E94F3F729813A814B810F
:104740005C810E9434FD20E034E244EF59E40E9491
:1047500054F80E94A1FD2B013C013FE68316910411
:10476000A104B10408F090C0F401EE0FFF1FEE0F9A
:10477000FF1FE15EF74F85919591A591B4918983D3
:10478000292E3A2EBD8B4FE6441651046104710464
:1047900008F082C0F201EE0FFF1FEE0FFF1FE15E77
:1047A000F74F45915591659174919A01CB014D85D3
:1047B0005E856F857889D8019A964D935D936D9348
:1047C0007C939D974C0D5D1D6E1D7F1DF80146A7C6
:1047D00057A760AB71ABEA5AFF4F49855A856B8585
:1047E0007C854083518362837383D6968D929D929C
:1047F000AD92BC92D997F80142AE53AE64AE75AE9D
:10480000FE9649814083218232825D8953833496AA
:10481000208331838283938369897A898B899C89F8
:10482000D2966D937D938D939C93D59778962D8199
:104830003E814F81588520833183428353836C9618
:104840000FB6F894DEBF0FBECDBFDF91CF911F91A1
:104850000F91FF90EF90DF90CF90BF90AF909F901F
:104860008F907F906F905F904F903F902F90089522
:1048700060E070E0CB0141CE60E070E0CB0188CE1B
:1048800060E070E0CB01F3CEC501B401CFD96983FC
:10489000272E382E9D8B77CFC301B201C7D99B013C
:1048A00086CF8F929F92AF92BF92CF92DF92EF927C
:1048B000FF920F93CF93DF931F92CDB7DEB76C01BA
:1048C0007B01490180918C055B01A40EB51E8823F4
:1048D000A1F0F60180819181480F591F51834083D7
:1048E0000F90DF91CF910F91FF90EF90DF90CF90DD
:1048F000BF90AF909F908F900895F6018081918135
:104900000E94B4FB898390915A04992311F00023EB
:1049100011F0F7018083BE016F5F7F4FC4010E94D9
:1049200078CDF60180819181019691838083FFEF9C
:10493000EF1AFF0AEA14FB0401F7D2CF7F928F929D
:104940009F92AF92BF92CF92DF92EF92FF920F931E
:104950001F93CF93DF931F92CDB7DEB7E0918C0505
:10496000E11133C059018C017B016B01C40ED51ECE
:10497000EC14FD0489F1F80180809180F7017190B9
:104980007F017982C4010E94B4FB781609F43AC011
:10499000672DC4010E94DDFBC4010E94B4FB998114
:1049A000891781F106E31AE3F80184910F5F1F4F25
:1049B000811121C00CEE13E0F80184910F5F1F4FAD
:1049C0008823E1F00E94A082F7CFFC012081318191
:1049D000420F531F518340830F90DF91CF911F915E
:1049E0000F91FF90EF90DF90CF90BF90AF909F908E
:1049F0008F907F9008950E94A082D6CF81E080930F
:104A00008C05EACFBE016F5F7F4FC5010E9478CD54
:104A1000F80180819181019691838083A9CF3FB76E
:104A2000F8948091E60C9091E70CA091E80CB0917D
:104A3000E90C26B5A89B05C02F3F19F00196A11DD2
:104A4000B11D3FBFBA2FA92F982F8827BC01CD01D8
:104A5000620F711D811D911D42E0660F771F881F37
:104A6000991F4A95D1F708952FB7F8946091E20CF9
:104A70007091E30C8091E40C9091E50C2FBF0895A8
:104A80001F920F920FB60F9211242F933F938F9383
:104A90009F93AF93BF938091E20C9091E30CA09110
:104AA000E40CB091E50C3091E10C23E0230F2D379D
:104AB00058F50196A11DB11D2093E10C8093E20CE5
:104AC0009093E30CA093E40CB093E50C8091E60C7A
:104AD0009091E70CA091E80CB091E90C0196A11D12
:104AE000B11D8093E60C9093E70CA093E80CB09373
:104AF000E90CBF91AF919F918F913F912F910F90B2
:104B00000FBE0F901F90189526E8230F0296A11D47
:104B1000B11DD2CF20914C0230914D022F5031095E
:104B2000821793070CF49C0130934F1620934E1676
:104B30000C9496C78F929F92AF92BF92CF92DF92C2
:104B4000EF92FF920F931F93CF93DF93B2E3A0E016
:104B50006A2F70E0AB014B0F511D559547954A17D1
:104B600011F0B41319C0E1E3F2E065917491072EDE
:104B7000000C880B990B0E94F5F7DF91CF911F91E4
:104B80000F91FF90EF90DF90CF90BF90AF909F90EC
:104B90008F900895B42FDECF9A0121503109220F52
:104BA000331F220F331FF901E559FE4FE590F490B2
:104BB000F901E159FE4FC591D4918E159F0554F32B
:104BC000A42FC817D9070CF4C3CFF901E359FE4F3E
:104BD00005911491F901EF58FE4FC590D490BC0196
:104BE0006E197F09072E000C880B990B0E94F5F7B0
:104BF0004B015C01B601601B710B072E000C880B8A
:104C0000990B0E94F5F79B01AC01C501B4010E940C
:104C100054F84B015C01BE016E197F09072E000C90
:104C2000880B990B0E94F5F79B01AC01C501B401FB
:104C30000E9434FD6B017C01B801110F880B990BA8
:104C40000E94F5F79B01AC01C701B6010E9458FC18
:104C500094CF0F930FB70F9300916E000B7F0093CB
:104C60006E0078940F930BB70F930CB70F921F92AF
:104C70002F933F934F935F936F937F938F939F9364
:104C8000AF93BF93EF93FF9311240E949535FF914B
:104C9000EF91BF91AF919F918F917F916F915F91B4
:104CA0004F913F912F911F900F900CBF0F910BBF11
:104CB0000F910460F89400936E000F910FBF0F9155
:104CC0001895CF92DF92EF92FF92C0901814D09077
:104CD0001914E0901A14F0901B146091161470913E
:104CE000171466507109072E000C880B990B0E944F
:104CF000F5F7A70196010E947EFE181604F520E044
:104D000030E040E050E4C701B6010E9458FC0E9428
:104D1000A1FD7093C20C6093C10CA6DE605A754170
:104D20008F4F9F4F6093BD0C7093BE0C8093BF0C50
:104D30009093C00CFF90EF90DF90CF900895109269
:104D4000BD0C1092BE0C1092BF0C1092C00CF2CF92
:104D50008F929F92AF92BF92CF92DF92EF92FF928B
:104D60000F931F93CF93DF93B0E4A0E06A2F70E01E
:104D7000AB014B0F511D55954795A41711F0B41376
:104D800019C0EAE8F4E165917491072E000C880BD4
:104D9000990B0E94F5F7DF91CF911F910F91FF9032
:104DA000EF90DF90CF90BF90AF909F908F9008953D
:104DB000B42FDECF9A0121503109220F331F220F69
:104DC000331FF901E457FC4EE590F490F901E057E8
:104DD000FC4EC591D4918E159F0554F3A42FC8178E
:104DE000D9070CF4C3CFF901E257FC4E0591149199
:104DF000F901EE56FC4EC590D490BC016E197F09A6
:104E0000072E000C880B990B0E94F5F74B015C01F3
:104E1000B601601B710B072E000C880B990B0E94CA
:104E2000F5F79B01AC01C501B4010E9454F84B0198
:104E30005C01BE016E197F09072E000C880B990BCF
:104E40000E94F5F79B01AC01C501B4010E9434FD3D
:104E50006B017C01B801110F880B990B0E94F5F7CB
:104E60009B01AC01C701B6010E9458FC94CF809110
:104E7000CF0C9091D00C5EDE60935016709351165B
:104E800080935216909353168091CD0C9091CE0C36
:104E90005FDF609318147093191480931A14909321
:104EA0001B14A895109258050895AF92BF92CF9207
:104EB000DF92EF92FF920F931F93CF93DF9320E047
:104EC00030E048E452E460915016709151168091A0
:104ED0005216909153160E947EFEC0E0181644F4BC
:104EE000E0E2F3E1E491C1E001C0CC0FEA95EAF71A
:104EF000D12CC12CA12CD0E0EE24E394F12CF601AE
:104F0000E65EFC4EB490F601E05EFC4E0491B7FC08
:104F100023C08A2D90E0002E02C0959587950A94B3
:104F2000E2F780FD19C0BE01002E02C0759567959D
:104F30000A94E2F76170162F1195612F8B2D0E9454
:104F4000D3CD612F70E08B2D0E9408D0C70101C026
:104F5000880F0A95EAF7A82A8FEFC81AD80A86E0C0
:104F6000C816D10461F6DF91CF911F910F91FF9088
:104F7000EF90DF90CF90BF90AF9008950F931F9365
:104F800080913605813011F56FDD0091910C109103
:104F9000920C2091930C3091940C601B710B820B3E
:104FA000930B28EE33E040E050E00E94FAFB609162
:104FB0008D0C70918E0C80918F0C9091900C620FE3
:104FC000731F841F951F1F910F9108956091950C79
:104FD0007091960C8091970C9091980CD6CF10926E
:104FE00036051092910C1092920C1092930C109224
:104FF000940C1092950C1092960C1092970C1092A3
:10500000980C10928D0C10928E0C10928F0C1092A6
:10501000900C089580913605813071F482E0809380
:10502000360522DD6093950C7093960C8093970C57
:105030009093980C81E0089580E008950F930FB746
:105040000F9300916E000F930B7F00936E00009101
:105050006F000D7F00936F000F930BB70F930CB78A
:105060000F921F922F933F934F935F936F937F9372
:105070008F939F93AF93BF93EF93FF93112448D0E7
:10508000FF91EF91BF91AF919F918F917F916F9120
:105090005F914F913F912F911F900F900CBF0F91F7
:1050A0000BBF0F910260F89400936F000F91009373
:1050B0006E000F910FBF0F9118958091340C80FFF7
:1050C00019C089988FEF809327028091340C81FF5B
:1050D00014C08F9A8FEF809328028091340C82FF46
:1050E0000FC080910B018270809309018FEF809334
:1050F00029020895899A81E0E6CF8F9881E0EBCF6D
:1051000080910B01809582708093090181E0EFCF3F
:105110002F923F924F925F926F927F928F929F92C7
:10512000AF92BF92CF92DF92EF92FF920F931F93B5
:10513000CF93DF93CDB7DEB767970FB6F894DEBF96
:105140000FBECDBFF8948FEF9FEF909389008093AF
:1051500088002AE02D83312C212C789480917B0CBF
:1051600090917C0CA0917D0CB0917E0C892B8A2BA8
:105170008B2B09F0D2C1809135058823E1F0809115
:105180007F0C9091800C10923505892B09F4C5C1D4
:105190001092720C1092800C10927F0C9091571606
:1051A00080915816981709F4B8C1809158168F5FEE
:1051B0008F708093581680917F0C9091800C892B72
:1051C00009F4ABC14091770C5091780C6091790C47
:1051D00070917A0C8091730C9091740CA091750C65
:1051E000B091760C0091690C10E030E020E0841B57
:1051F000950BA60BB70B081719072A073B0710F4E6
:10520000D901C8018983840F951FA61FB71F8093FA
:10521000770C9093780CA093790CB0937A0CE09172
:105220008400F09185007C9680914E0C90914F0CFB
:10523000A091500CB091510C40913E0C50913F0CFC
:105240006091400C7091410C840F951FA61FB71FF1
:1052500080934E0C90934F0CA093500CB093510C34
:10526000B7FD1CC0889A4091CC135091CD1360912A
:10527000CE137091CF1380912702082E000C990B4A
:10528000AA0BBB0B840F951FA61FB71F8093CC13CF
:105290009093CD13A093CE13B093CF138091520C63
:1052A0009091530CA091540CB091550C4091420C2C
:1052B0005091430C6091440C7091450C840F951FE4
:1052C000A61FB71F8093520C9093530CA093540CBD
:1052D000B093550CB7FD1CC08E9A4091D0135091DD
:1052E000D1136091D2137091D31380912802082EAC
:1052F000000C990BAA0BBB0B840F951FA61FB71FA1
:105300008093D0139093D113A093D213B093D3135F
:105310008091560C9091570CA091580CB091590C5B
:105320004091460C5091470C6091480C7091490C8B
:10533000840F951FA61FB71F8093560C9093570C90
:10534000A093580CB093590CB7FD21C080910B016C
:1053500080958870809309014091D4135091D513A2
:105360006091D6137091D71380912902082E000CFA
:10537000990BAA0BBB0B840F951FA61FB71F809319
:10538000D4139093D513A093D613B093D713409111
:105390005A0C50915B0C60915C0C70915D0C80918B
:1053A0004A0C90914B0CA0914C0CB0914D0C840F79
:1053B000951FA61FB71F80935A0C90935B0CA09368
:1053C0005C0CB0935D0CB7FD38C00091D813109100
:1053D000D9132091DA133091DB1340912A02042E65
:1053E000000C550B660B770B400F511F621F731F8C
:1053F0004093D8135093D9136093DA137093DB134F
:1054000040913A0C50913B0C60913C0C70913D0CDA
:10541000841B950BA60BB70B80935A0C90935B0CD7
:10542000A0935C0CB0935D0C8091670C9091340C50
:1054300093FF71C081508093670C80914E0C9091C6
:105440004F0CA091500CB091510CB7FD15C040917C
:105450003A0C50913B0C60913C0C70913D0C841BBC
:10546000950BA60BB70B80934E0C90934F0CA0930B
:10547000500CB093510C88988091520C9091530C21
:10548000A091540CB091550CB7FD15C040913A0C49
:1054900050913B0C60913C0C70913D0C841B950B22
:1054A000A60BB70B8093520C9093530CA093540C03
:1054B000B093550C8E988091560C9091570CA091FA
:1054C000580CB091590CB7FD19C040913A0C50914D
:1054D0003B0C60913C0C70913D0C841B950BA60B12
:1054E000B70B8093560C9093570CA093580CB09325
:1054F000590C80910B0188708093090139813150DA
:105500003983332351F080918400909185008E1768
:105510009F07C8F389CE8F5F8ECF80913402909120
:105520003502A0913602B0913702892B8A2B8B2B42
:1055300009F08AC08091680C882309F475C04091F5
:10554000670C8090770C9090780CA090790CB090BC
:105550007A0CC090630CD090640CE090650CF090D5
:10556000660CC814D904EA04FB04F0F58091320CEF
:105570009091330C2091370C3091380C2817390753
:1055800098F541504093670C01979093330C8093AA
:10559000320C409130025091310260913202709190
:1055A00033028091670C87FD43C016988091840078
:1055B000909185004C962091670C2223E9F1149A72
:1055C0002091670C27FF36C02F5F2093670C14983B
:1055D0002091670C222379F320918400309185007B
:1055E00028173907C8F3E7CF8C149D04AE04BF0415
:1055F00080F48091320C9091330C2091350C3091D5
:10560000360C8217930728F44F5F4093670C01967E
:10561000BCCF8FEF9FEFDC0180933002909331027B
:10562000A0933202B09333024FEF5FEFBA01B9CFCC
:10563000169ABCCF2150C9CF409334025093350203
:10564000609336027093370280917B0C90917C0CB2
:10565000A0917D0CB0917E0C892B8A2B8B2B09F0AD
:10566000C1C7A0917F0CB091800CBF8BAE8BAB2BD0
:1056700011F40C9492334090770C5090780C609019
:10568000790C70907A0C8091730C9091740CA091AD
:10569000750CB091760C481659066A067B0608F41C
:1056A00074C01092720C1092800C10927F0C90912A
:1056B000571680915816981711F40C9492338091D4
:1056C00058168F5F8F7080935816A0EDCA2EA7E0F2
:1056D000DA2EE12CF12C80917F0C9091800C892B9B
:1056E00009F078C70E94E11D9093800C80937F0C95
:1056F000892B09F46FC720917F0C3091800C3A837D
:105700002983D9018C9183FD01C0C9C5F90185891F
:105710009689A789B08D8093CC139093CD13A093D5
:10572000CE13B093CF13818D928DA38DB48D8093C2
:10573000D0139093D113A093D213B093D313858D2C
:10574000968DA78DB0A18093D4139093D513A09379
:10575000D613B093D71381A192A1A3A1B4A1809332
:10576000D8139093D913A093DA13B093DB139091CD
:10577000571680915816981709F4B4CF809158168F
:105780008F5F8F7080935816ADCF80916E0C909183
:105790006F0CA091700CB091710C84159505A60545
:1057A000B70508F437C240916A0C50916B0C6091B8
:1057B0006C0C70916D0CEE89FF8986A997A9A0AD3C
:1057C000B1AD481759076A077B0708F0F9C14115C1
:1057D00051056105710509F08FC0809031059090E9
:1057E0003205A0903305B09034058AEF92E1A1E034
:1057F000FC010591159125913491081519052A058B
:105800003B0558F4B694A79497948794AA0F0496EE
:10581000E6E1F3E1E817F90759F7A093690CF0E224
:105820008F169104A104B10428F4E0E28E2E912C8D
:10583000A12CB12C20E2821A9108A108B108811490
:1058400038E09306A104B10408F4C3C1A4E09A9E11
:10585000C00111248650914FFC013296259134915C
:10586000B82DEE27B39F8001B29F010D1E1F069435
:105870000E1F1E1F112430E020E0FC01C590D490C3
:10588000F12CE12CC01AD10AE20AF30A4C0D5D1D7D
:105890006E1D7F1D40936A0C50936B0C60936C0CD3
:1058A00070936D0C8091670C9091680C992309F4AA
:1058B0003BC4882309F40FCF2E893F89285B3F4FD3
:1058C000D9018D919C91B0E0A0E0409130025091BF
:1058D0003102609132027091330284179507A60756
:1058E000B70709F4F8CE10923402109235021092E4
:1058F000360210923702EFCEF12C0E81942F852EB6
:10590000862F1F81B885A985FA85EB853C852D8575
:10591000E0912D05E99FA12DFF2730912E05399F9C
:10592000A00DF11D10902F05199EF00DE89DA00D02
:10593000F11D389DF00DE89FF00D1A2FBF2F1A9F13
:10594000E12D332722271F9FE00D311D2F1DBA9F08
:10595000E00D311D2F1DBF9F300D211D132FB22FC4
:105960001A9F012D332722271F9F000D311D2F1D48
:10597000BA9F000D311D2F1DBF9F300D211D132F0C
:10598000B22FEE279091310580903205809133053A
:105990000090F60C0F2809F483C03091F20C319F6F
:1059A000E1199F098F088F092091F30C219FE019BD
:1059B00091098F088F090091F40C019F90198108BB
:1059C0008F093B9FE01991098F088F092B9F901930
:1059D00081088F090B9F801881091A9F012D332799
:1059E00022271F9F000D311D2F1DBA9F000D311D55
:1059F0002F1DBF9F300D211D132FB22F3091EE0CA4
:105A0000319FE10D9F1D8F1C8F1D2091EF0C219F59
:105A1000E00D911D8F1C8F1D0091F00C019F900DCA
:105A2000811C8F1D3B9FE00D911D8F1C8F1D2B9F97
:105A3000900D811C8F1D0B9F800C811D1A9F012DC5
:105A4000332722271F9F000D311D2F1DBA9F000DE8
:105A5000311D2F1DBF9F300D211D132FB22F3091EF
:105A6000EA0C319FE1199F098F088F092091EB0CF7
:105A7000219FE01991098F088F090091EC0C019F7B
:105A8000901981088F093B9FE01991098F088F09B0
:105A90002B9F901981088F090B9F8018810982C064
:105AA0003091F20C319FE10D9F1D8F1C8F1D2091B5
:105AB000F30C219FE00D911D8F1C8F1D0091F40CA4
:105AC000019F900D811C8F1D3B9FE00D911D8F1C30
:105AD0008F1D2B9F900D811C8F1D0B9F800C811D96
